{"abi":[{"type":"constructor","inputs":[{"name":"_seki","type":"address","internalType":"address"}],"stateMutability":"nonpayable"},{"type":"function","name":"DEFAULT_DISPUTE_WINDOW","inputs":[],"outputs":[{"name":"","type":"uint64","internalType":"uint64"}],"stateMutability":"view"},{"type":"function","name":"MAX_DURATION","inputs":[],"outputs":[{"name":"","type":"uint64","internalType":"uint64"}],"stateMutability":"view"},{"type":"function","name":"MIN_DURATION","inputs":[],"outputs":[{"name":"","type":"uint64","internalType":"uint64"}],"stateMutability":"view"},{"type":"function","name":"MIN_UNIQUE_BETTORS","inputs":[],"outputs":[{"name":"","type":"uint256","internalType":"uint256"}],"stateMutability":"view"},{"type":"function","name":"bet","inputs":[{"name":"id","type":"uint256","internalType":"uint256"},{"name":"option","type":"uint8","internalType":"uint8"},{"name":"amount","type":"uint256","internalType":"uint256"}],"outputs":[],"stateMutability":"nonpayable"},{"type":"function","name":"cancelMarket","inputs":[{"name":"id","type":"uint256","internalType":"uint256"}],"outputs":[],"stateMutability":"nonpayable"},{"type":"function","name":"claim","inputs":[{"name":"id","type":"uint256","internalType":"uint256"}],"outputs":[],"stateMutability":"nonpayable"},{"type":"function","name":"createMarket","inputs":[{"name":"question","type":"string","internalType":"string"},{"name":"optionCount","type":"uint8","internalType":"uint8"},{"name":"duration","type":"uint64","internalType":"uint64"}],"outputs":[{"name":"id","type":"uint256","internalType":"uint256"}],"stateMutability":"nonpayable"},{"type":"function","name":"finalize","inputs":[{"name":"id","type":"uint256","internalType":"uint256"}],"outputs":[],"stateMutability":"nonpayable"},{"type":"function","name":"getMarket","inputs":[{"name":"id","type":"uint256","internalType":"uint256"}],"outputs":[{"name":"creator","type":"address","internalType":"address"},{"name":"optionCount","type":"uint8","internalType":"uint8"},{"name":"winningOption","type":"uint8","internalType":"uint8"},{"name":"status","type":"uint8","internalType":"enum SekiPredictCore.Status"},{"name":"openUntil","type":"uint64","internalType":"uint64"},{"name":"proposedAt","type":"uint64","internalType":"uint64"},{"name":"disputeWindow","type":"uint64","internalType":"uint64"},{"name":"totalPool","type":"uint256","internalType":"uint256"},{"name":"uniqueBettors","type":"uint256","internalType":"uint256"},{"name":"question","type":"string","internalType":"string"}],"stateMutability":"view"},{"type":"function","name":"hasClaimed","inputs":[{"name":"id","type":"uint256","internalType":"uint256"},{"name":"user","type":"address","internalType":"address"}],"outputs":[{"name":"","type":"bool","internalType":"bool"}],"stateMutability":"view"},{"type":"function","name":"marketCount","inputs":[],"outputs":[{"name":"","type":"uint256","internalType":"uint256"}],"stateMutability":"view"},{"type":"function","name":"optionTotal","inputs":[{"name":"id","type":"uint256","internalType":"uint256"},{"name":"option","type":"uint8","internalType":"uint8"}],"outputs":[{"name":"","type":"uint256","internalType":"uint256"}],"stateMutability":"view"},{"type":"function","name":"owner","inputs":[],"outputs":[{"name":"","type":"address","internalType":"address"}],"stateMutability":"view"},{"type":"function","name":"previewClaim","inputs":[{"name":"id","type":"uint256","internalType":"uint256"},{"name":"user","type":"address","internalType":"address"}],"outputs":[{"name":"","type":"uint256","internalType":"uint256"}],"stateMutability":"view"},{"type":"function","name":"proposeOutcome","inputs":[{"name":"id","type":"uint256","internalType":"uint256"},{"name":"winningOption","type":"uint8","internalType":"uint8"}],"outputs":[],"stateMutability":"nonpayable"},{"type":"function","name":"renounceOwnership","inputs":[],"outputs":[],"stateMutability":"nonpayable"},{"type":"function","name":"seki","inputs":[],"outputs":[{"name":"","type":"address","internalType":"contract IERC20"}],"stateMutability":"view"},{"type":"function","name":"transferOwnership","inputs":[{"name":"newOwner","type":"address","internalType":"address"}],"outputs":[],"stateMutability":"nonpayable"},{"type":"function","name":"userStake","inputs":[{"name":"id","type":"uint256","internalType":"uint256"},{"name":"user","type":"address","internalType":"address"},{"name":"option","type":"uint8","internalType":"uint8"}],"outputs":[{"name":"","type":"uint256","internalType":"uint256"}],"stateMutability":"view"},{"type":"event","name":"BetPlaced","inputs":[{"name":"id","type":"uint256","indexed":true,"internalType":"uint256"},{"name":"user","type":"address","indexed":true,"internalType":"address"},{"name":"option","type":"uint8","indexed":false,"internalType":"uint8"},{"name":"amount","type":"uint256","indexed":false,"internalType":"uint256"}],"anonymous":false},{"type":"event","name":"Claimed","inputs":[{"name":"id","type":"uint256","indexed":true,"internalType":"uint256"},{"name":"user","type":"address","indexed":true,"internalType":"address"},{"name":"payout","type":"uint256","indexed":false,"internalType":"uint256"}],"anonymous":false},{"type":"event","name":"MarketCancelled","inputs":[{"name":"id","type":"uint256","indexed":true,"internalType":"uint256"}],"anonymous":false},{"type":"event","name":"MarketCreated","inputs":[{"name":"id","type":"uint256","indexed":true,"internalType":"uint256"},{"name":"creator","type":"address","indexed":true,"internalType":"address"},{"name":"optionCount","type":"uint8","indexed":false,"internalType":"uint8"},{"name":"openUntil","type":"uint64","indexed":false,"internalType":"uint64"},{"name":"question","type":"string","indexed":false,"internalType":"string"}],"anonymous":false},{"type":"event","name":"MarketResolved","inputs":[{"name":"id","type":"uint256","indexed":true,"internalType":"uint256"},{"name":"winningOption","type":"uint8","indexed":false,"internalType":"uint8"}],"anonymous":false},{"type":"event","name":"OutcomeProposed","inputs":[{"name":"id","type":"uint256","indexed":true,"internalType":"uint256"},{"name":"winningOption","type":"uint8","indexed":false,"internalType":"uint8"},{"name":"proposedAt","type":"uint64","indexed":false,"internalType":"uint64"}],"anonymous":false},{"type":"event","name":"OwnershipTransferred","inputs":[{"name":"previousOwner","type":"address","indexed":true,"internalType":"address"},{"name":"newOwner","type":"address","indexed":true,"internalType":"address"}],"anonymous":false},{"type":"error","name":"OwnableInvalidOwner","inputs":[{"name":"owner","type":"address","internalType":"address"}]},{"type":"error","name":"OwnableUnauthorizedAccount","inputs":[{"name":"account","type":"address","internalType":"address"}]},{"type":"error","name":"ReentrancyGuardReentrantCall","inputs":[]},{"type":"error","name":"SafeERC20FailedOperation","inputs":[{"name":"token","type":"address","internalType":"address"}]}],"bytecode":{"object":"0x60a060405234801561000f575f5ffd5b50604051612ff2380380612ff2833981810160405281019061003191906102cf565b335f73ffffffffffffffffffffffffffffffffffffffff168173ffffffffffffffffffffffffffffffffffffffff16036100a2575f6040517f1e4fbdf70000000000000000000000000000000000000000000000000000000081526004016100999190610309565b60405180910390fd5b6100b18161017e60201b60201c565b5060016100d06100c561023f60201b60201c565b61026860201b60201c565b5f01819055505f73ffffffffffffffffffffffffffffffffffffffff168173ffffffffffffffffffffffffffffffffffffffff1603610144576040517f08c379a000000000000000000000000000000000000000000000000000000000815260040161013b9061037c565b60405180910390fd5b8073ffffffffffffffffffffffffffffffffffffffff1660808173ffffffffffffffffffffffffffffffffffffffff16815250505061039a565b5f5f5f9054906101000a900473ffffffffffffffffffffffffffffffffffffffff169050815f5f6101000a81548173ffffffffffffffffffffffffffffffffffffffff021916908373ffffffffffffffffffffffffffffffffffffffff1602179055508173ffffffffffffffffffffffffffffffffffffffff168173ffffffffffffffffffffffffffffffffffffffff167f8be0079c531659141344cd1fd0a4f28419497f9722a3daafe3b4186f6b6457e060405160405180910390a35050565b5f7f9b779b17422d0df92223018b32b4d1fa46e071723d6817e2486d003becc55f005f1b905090565b5f819050919050565b5f5ffd5b5f73ffffffffffffffffffffffffffffffffffffffff82169050919050565b5f61029e82610275565b9050919050565b6102ae81610294565b81146102b8575f5ffd5b50565b5f815190506102c9816102a5565b92915050565b5f602082840312156102e4576102e3610271565b5b5f6102f1848285016102bb565b91505092915050565b61030381610294565b82525050565b5f60208201905061031c5f8301846102fa565b92915050565b5f82825260208201905092915050565b7f73656b693d3000000000000000000000000000000000000000000000000000005f82015250565b5f610366600683610322565b915061037182610332565b602082019050919050565b5f6020820190508181035f8301526103938161035a565b9050919050565b608051612c326103c05f395f81816106ed01528181610edf01526110a90152612c325ff3fe608060405234801561000f575f5ffd5b506004361061012a575f3560e01c806399890895116100ab578063cd3566341161006f578063cd3566341461032e578063cf87935c1461034c578063eb44fdd314610368578063ec979082146103a1578063f2fde38b146103bf5761012a565b80639989089514610274578063a3a98d5614610292578063b1724b46146102c2578063b6a6d177146102e0578063b8ae007d146102fe5761012a565b80637c16cd9e116100f25780637c16cd9e146101be57806386274854146101da578063873f6f9e146101f65780638875be3b146102265780638da5cb5b146102565761012a565b806305261aea1461012e57806312b27c051461014a578063379607f51461017a5780634418034814610196578063715018a6146101b4575b5f5ffd5b61014860048036038101906101439190611b61565b6103db565b005b610164600480360381019061015f9190611bc2565b610565565b6040516101719190611c0f565b60405180910390f35b610194600480360381019061018f9190611b61565b610598565b005b61019e61078d565b6040516101ab9190611c0f565b60405180910390f35b6101bc610792565b005b6101d860048036038101906101d39190611b61565b6107a5565b005b6101f460048036038101906101ef9190611bc2565b610922565b005b610210600480360381019061020b9190611c82565b610b39565b60405161021d9190611cda565b60405180910390f35b610240600480360381019061023b9190611cf3565b610b9e565b60405161024d9190611c0f565b60405180910390f35b61025e610c0d565b60405161026b9190611d52565b60405180910390f35b61027c610c34565b6040516102899190611d8d565b60405180910390f35b6102ac60048036038101906102a79190611e31565b610c3b565b6040516102b99190611c0f565b60405180910390f35b6102ca610ead565b6040516102d79190611d8d565b60405180910390f35b6102e8610eb4565b6040516102f59190611d8d565b60405180910390f35b61031860048036038101906103139190611c82565b610eba565b6040516103259190611c0f565b60405180910390f35b610336610edd565b6040516103439190611efd565b60405180910390f35b61036660048036038101906103619190611f16565b610f01565b005b610382600480360381019061037d9190611b61565b6112c3565b6040516103989a99989796959493929190612058565b60405180910390f35b6103a961143b565b6040516103b69190611c0f565b60405180910390f35b6103d960048036038101906103d491906120f9565b611441565b005b5f60025f8381526020019081526020015f2090506001600381111561040357610402611f75565b5b815f0160169054906101000a900460ff16600381111561042657610425611f75565b5b14610466576040517f08c379a000000000000000000000000000000000000000000000000000000000815260040161045d9061216e565b60405180910390fd5b8060010160089054906101000a900467ffffffffffffffff16816001015f9054906101000a900467ffffffffffffffff166104a191906121b9565b67ffffffffffffffff164210156104ed576040517f08c379a00000000000000000000000000000000000000000000000000000000081526004016104e49061223e565b60405180910390fd5b6003815f0160166101000a81548160ff0219169083600381111561051457610513611f75565b5b0217905550817f739f283563fb51ab6b89ee95d937b2e63a6cfcb83c385dbebb629f9d97bd43e6825f0160159054906101000a900460ff16604051610559919061225c565b60405180910390a25050565b5f60025f8481526020019081526020015f206004015f8360ff1660ff1681526020019081526020015f2054905092915050565b6105a06114c5565b5f60025f8381526020019081526020015f209050806008015f3373ffffffffffffffffffffffffffffffffffffffff1673ffffffffffffffffffffffffffffffffffffffff1681526020019081526020015f205f9054906101000a900460ff1615610640576040517f08c379a0000000000000000000000000000000000000000000000000000000008152600401610637906122bf565b60405180910390fd5b5f61064b82336114e7565b90505f811161068f576040517f08c379a000000000000000000000000000000000000000000000000000000000815260040161068690612327565b60405180910390fd5b6001826008015f3373ffffffffffffffffffffffffffffffffffffffff1673ffffffffffffffffffffffffffffffffffffffff1681526020019081526020015f205f6101000a81548160ff02191690831515021790555061073133827f000000000000000000000000000000000000000000000000000000000000000073ffffffffffffffffffffffffffffffffffffffff166117b39092919063ffffffff16565b3373ffffffffffffffffffffffffffffffffffffffff16837f4ec90e965519d92681267467f775ada5bd214aa92c0dc93d90a5e880ce9ed026836040516107789190611c0f565b60405180910390a3505061078a611806565b50565b600481565b61079a611820565b6107a35f6118a7565b565b6107ad611820565b5f60025f8381526020019081526020015f2090505f60038111156107d4576107d3611f75565b5b815f0160169054906101000a900460ff1660038111156107f7576107f6611f75565b5b148061088657506001600381111561081257610811611f75565b5b815f0160169054906101000a900460ff16600381111561083557610834611f75565b5b14801561088557508060010160089054906101000a900467ffffffffffffffff16816001015f9054906101000a900467ffffffffffffffff1661087891906121b9565b67ffffffffffffffff1642105b5b6108c5576040517f08c379a00000000000000000000000000000000000000000000000000000000081526004016108bc9061238f565b60405180910390fd5b6002815f0160166101000a81548160ff021916908360038111156108ec576108eb611f75565b5b0217905550817f2ca440fb7fca85d7f55d395a4abd94817330b83a62f3502efbb4770144e4ca9760405160405180910390a25050565b61092a611820565b5f60025f8481526020019081526020015f2090505f600381111561095157610950611f75565b5b815f0160169054906101000a900460ff16600381111561097457610973611f75565b5b146109b4576040517f08c379a00000000000000000000000000000000000000000000000000000000081526004016109ab906123f7565b60405180910390fd5b805f0160179054906101000a900467ffffffffffffffff1667ffffffffffffffff16421015610a18576040517f08c379a0000000000000000000000000000000000000000000000000000000008152600401610a0f9061245f565b60405180910390fd5b805f0160149054906101000a900460ff1660ff168260ff161115610a71576040517f08c379a0000000000000000000000000000000000000000000000000000000008152600401610a68906124c7565b60405180910390fd5b6001815f0160166101000a81548160ff02191690836003811115610a9857610a97611f75565b5b021790555081815f0160156101000a81548160ff021916908360ff16021790555042816001015f6101000a81548167ffffffffffffffff021916908367ffffffffffffffff160217905550827f73a069f62beda267f103c90a04d2f9cd0083dc1f754a9d1d1b5ba8f8df9734ce83836001015f9054906101000a900467ffffffffffffffff16604051610b2c9291906124e5565b60405180910390a2505050565b5f60025f8481526020019081526020015f206008015f8373ffffffffffffffffffffffffffffffffffffffff1673ffffffffffffffffffffffffffffffffffffffff1681526020019081526020015f205f9054906101000a900460ff16905092915050565b5f60025f8581526020019081526020015f206005015f8473ffffffffffffffffffffffffffffffffffffffff1673ffffffffffffffffffffffffffffffffffffffff1681526020019081526020015f205f8360ff1660ff1681526020019081526020015f205490509392505050565b5f5f5f9054906101000a900473ffffffffffffffffffffffffffffffffffffffff16905090565b6201518081565b5f60028360ff1610158015610c54575060108360ff1611155b610c93576040517f08c379a0000000000000000000000000000000000000000000000000000000008152600401610c8a90612556565b60405180910390fd5b61038467ffffffffffffffff168267ffffffffffffffff1610158015610cd0575062093a8067ffffffffffffffff168267ffffffffffffffff1611155b610d0f576040517f08c379a0000000000000000000000000000000000000000000000000000000008152600401610d06906125be565b60405180910390fd5b60015f8154610d1d906125dc565b91905081905590505f60025f8381526020019081526020015f20905033815f015f6101000a81548173ffffffffffffffffffffffffffffffffffffffff021916908373ffffffffffffffffffffffffffffffffffffffff16021790555083815f0160146101000a81548160ff021916908360ff1602179055505f815f0160166101000a81548160ff02191690836003811115610dbc57610dbb611f75565b5b02179055508242610dcd91906121b9565b815f0160176101000a81548167ffffffffffffffff021916908367ffffffffffffffff160217905550620151808160010160086101000a81548167ffffffffffffffff021916908367ffffffffffffffff1602179055508585826003019182610e3792919061285f565b503373ffffffffffffffffffffffffffffffffffffffff16827fece3480cfdf303896d864889e83f95eb72ae8053e16d1fdc6c8399d3788725f986845f0160179054906101000a900467ffffffffffffffff168a8a604051610e9c9493929190612966565b60405180910390a350949350505050565b62093a8081565b61038481565b5f610ed560025f8581526020019081526020015f20836114e7565b905092915050565b7f000000000000000000000000000000000000000000000000000000000000000081565b610f096114c5565b5f60025f8581526020019081526020015f2090505f6003811115610f3057610f2f611f75565b5b815f0160169054906101000a900460ff166003811115610f5357610f52611f75565b5b14610f93576040517f08c379a0000000000000000000000000000000000000000000000000000000008152600401610f8a906129ee565b60405180910390fd5b805f0160179054906101000a900467ffffffffffffffff1667ffffffffffffffff164210610ff6576040517f08c379a0000000000000000000000000000000000000000000000000000000008152600401610fed90612a56565b60405180910390fd5b60018360ff16101580156110205750805f0160149054906101000a900460ff1660ff168360ff1611155b61105f576040517f08c379a0000000000000000000000000000000000000000000000000000000008152600401611056906124c7565b60405180910390fd5b5f82116110a1576040517f08c379a000000000000000000000000000000000000000000000000000000000815260040161109890612abe565b60405180910390fd5b6110ee3330847f000000000000000000000000000000000000000000000000000000000000000073ffffffffffffffffffffffffffffffffffffffff16611968909392919063ffffffff16565b806006015f3373ffffffffffffffffffffffffffffffffffffffff1673ffffffffffffffffffffffffffffffffffffffff1681526020019081526020015f205f9054906101000a900460ff166111b1576001816006015f3373ffffffffffffffffffffffffffffffffffffffff1673ffffffffffffffffffffffffffffffffffffffff1681526020019081526020015f205f6101000a81548160ff0219169083151502179055506001816007015f8282546111a99190612adc565b925050819055505b81816005015f3373ffffffffffffffffffffffffffffffffffffffff1673ffffffffffffffffffffffffffffffffffffffff1681526020019081526020015f205f8560ff1660ff1681526020019081526020015f205f8282546112149190612adc565b9250508190555081816004015f8560ff1660ff1681526020019081526020015f205f8282546112439190612adc565b9250508190555081816002015f82825461125d9190612adc565b925050819055503373ffffffffffffffffffffffffffffffffffffffff16847f4f1eed5e863a822b0f9eb960dfdab2cc5a99beec4b191f2a7a9c7e28e5a1552485856040516112ad929190612b0f565b60405180910390a3506112be611806565b505050565b5f5f5f5f5f5f5f5f5f60605f60025f8d81526020019081526020015f209050805f015f9054906101000a900473ffffffffffffffffffffffffffffffffffffffff16815f0160149054906101000a900460ff16825f0160159054906101000a900460ff16835f0160169054906101000a900460ff16845f0160179054906101000a900467ffffffffffffffff16856001015f9054906101000a900467ffffffffffffffff168660010160089054906101000a900467ffffffffffffffff16876002015488600701548960030180805461139b90612687565b80601f01602080910402602001604051908101604052809291908181526020018280546113c790612687565b80156114125780601f106113e957610100808354040283529160200191611412565b820191905f5260205f20905b8154815290600101906020018083116113f557829003601f168201915b505050505090509a509a509a509a509a509a509a509a509a509a50509193959799509193959799565b60015481565b611449611820565b5f73ffffffffffffffffffffffffffffffffffffffff168173ffffffffffffffffffffffffffffffffffffffff16036114b9575f6040517f1e4fbdf70000000000000000000000000000000000000000000000000000000081526004016114b09190611d52565b60405180910390fd5b6114c2816118a7565b50565b6114cd6119bd565b60026114df6114da6119fe565b611a27565b5f0181905550565b5f826008015f8373ffffffffffffffffffffffffffffffffffffffff1673ffffffffffffffffffffffffffffffffffffffff1681526020019081526020015f205f9054906101000a900460ff1615611541575f90506117ad565b5f6002600381111561155657611555611f75565b5b845f0160169054906101000a900460ff16600381111561157957611578611f75565b5b036115875760019050611641565b60038081111561159a57611599611f75565b5b845f0160169054906101000a900460ff1660038111156115bd576115bc611f75565b5b03611637575f845f0160159054906101000a900460ff1660ff16036115e55760019050611632565b6004846007015410156115fb5760019050611631565b5f846004015f865f0160159054906101000a900460ff1660ff1660ff1681526020019081526020015f20540361163057600190505b5b5b611640565b5f9150506117ad565b5b80156116eb575f5f600190505b855f0160149054906101000a900460ff1660ff168160ff16116116e057856005015f8673ffffffffffffffffffffffffffffffffffffffff1673ffffffffffffffffffffffffffffffffffffffff1681526020019081526020015f205f8260ff1660ff1681526020019081526020015f2054826116cb9190612adc565b915080806116d890612b36565b91505061164e565b5080925050506117ad565b5f846005015f8573ffffffffffffffffffffffffffffffffffffffff1673ffffffffffffffffffffffffffffffffffffffff1681526020019081526020015f205f865f0160159054906101000a900460ff1660ff1660ff1681526020019081526020015f205490505f8103611764575f925050506117ad565b846004015f865f0160159054906101000a900460ff1660ff1660ff1681526020019081526020015f205485600201548261179e9190612b5e565b6117a89190612bcc565b925050505b92915050565b6117c08383836001611a30565b61180157826040517f5274afe70000000000000000000000000000000000000000000000000000000081526004016117f89190611d52565b60405180910390fd5b505050565b60016118186118136119fe565b611a27565b5f0181905550565b611828611a92565b73ffffffffffffffffffffffffffffffffffffffff16611846610c0d565b73ffffffffffffffffffffffffffffffffffffffff16146118a557611869611a92565b6040517f118cdaa700000000000000000000000000000000000000000000000000000000815260040161189c9190611d52565b60405180910390fd5b565b5f5f5f9054906101000a900473ffffffffffffffffffffffffffffffffffffffff169050815f5f6101000a81548173ffffffffffffffffffffffffffffffffffffffff021916908373ffffffffffffffffffffffffffffffffffffffff1602179055508173ffffffffffffffffffffffffffffffffffffffff168173ffffffffffffffffffffffffffffffffffffffff167f8be0079c531659141344cd1fd0a4f28419497f9722a3daafe3b4186f6b6457e060405160405180910390a35050565b611976848484846001611a99565b6119b757836040517f5274afe70000000000000000000000000000000000000000000000000000000081526004016119ae9190611d52565b60405180910390fd5b50505050565b6119c5611b0a565b156119fc576040517f3ee5aeb500000000000000000000000000000000000000000000000000000000815260040160405180910390fd5b565b5f7f9b779b17422d0df92223018b32b4d1fa46e071723d6817e2486d003becc55f005f1b905090565b5f819050919050565b5f5f63a9059cbb60e01b9050604051815f525f1960601c86166004528460245260205f60445f5f8b5af1925060015f51148316611a84578383151615611a78573d5f823e3d81fd5b5f873b113d1516831692505b806040525050949350505050565b5f33905090565b5f5f6323b872dd60e01b9050604051815f525f1960601c87166004525f1960601c86166024528460445260205f60645f5f8c5af1925060015f51148316611af7578383151615611aeb573d5f823e3d81fd5b5f883b113d1516831692505b806040525f606052505095945050505050565b5f6002611b1d611b186119fe565b611a27565b5f015414905090565b5f5ffd5b5f5ffd5b5f819050919050565b611b4081611b2e565b8114611b4a575f5ffd5b50565b5f81359050611b5b81611b37565b92915050565b5f60208284031215611b7657611b75611b26565b5b5f611b8384828501611b4d565b91505092915050565b5f60ff82169050919050565b611ba181611b8c565b8114611bab575f5ffd5b50565b5f81359050611bbc81611b98565b92915050565b5f5f60408385031215611bd857611bd7611b26565b5b5f611be585828601611b4d565b9250506020611bf685828601611bae565b9150509250929050565b611c0981611b2e565b82525050565b5f602082019050611c225f830184611c00565b92915050565b5f73ffffffffffffffffffffffffffffffffffffffff82169050919050565b5f611c5182611c28565b9050919050565b611c6181611c47565b8114611c6b575f5ffd5b50565b5f81359050611c7c81611c58565b92915050565b5f5f60408385031215611c9857611c97611b26565b5b5f611ca585828601611b4d565b9250506020611cb685828601611c6e565b9150509250929050565b5f8115159050919050565b611cd481611cc0565b82525050565b5f602082019050611ced5f830184611ccb565b92915050565b5f5f5f60608486031215611d0a57611d09611b26565b5b5f611d1786828701611b4d565b9350506020611d2886828701611c6e565b9250506040611d3986828701611bae565b9150509250925092565b611d4c81611c47565b82525050565b5f602082019050611d655f830184611d43565b92915050565b5f67ffffffffffffffff82169050919050565b611d8781611d6b565b82525050565b5f602082019050611da05f830184611d7e565b92915050565b5f5ffd5b5f5ffd5b5f5ffd5b5f5f83601f840112611dc757611dc6611da6565b5b8235905067ffffffffffffffff811115611de457611de3611daa565b5b602083019150836001820283011115611e0057611dff611dae565b5b9250929050565b611e1081611d6b565b8114611e1a575f5ffd5b50565b5f81359050611e2b81611e07565b92915050565b5f5f5f5f60608587031215611e4957611e48611b26565b5b5f85013567ffffffffffffffff811115611e6657611e65611b2a565b5b611e7287828801611db2565b94509450506020611e8587828801611bae565b9250506040611e9687828801611e1d565b91505092959194509250565b5f819050919050565b5f611ec5611ec0611ebb84611c28565b611ea2565b611c28565b9050919050565b5f611ed682611eab565b9050919050565b5f611ee782611ecc565b9050919050565b611ef781611edd565b82525050565b5f602082019050611f105f830184611eee565b92915050565b5f5f5f60608486031215611f2d57611f2c611b26565b5b5f611f3a86828701611b4d565b9350506020611f4b86828701611bae565b9250506040611f5c86828701611b4d565b9150509250925092565b611f6f81611b8c565b82525050565b7f4e487b71000000000000000000000000000000000000000000000000000000005f52602160045260245ffd5b60048110611fb357611fb2611f75565b5b50565b5f819050611fc382611fa2565b919050565b5f611fd282611fb6565b9050919050565b611fe281611fc8565b82525050565b5f81519050919050565b5f82825260208201905092915050565b8281835e5f83830152505050565b5f601f19601f8301169050919050565b5f61202a82611fe8565b6120348185611ff2565b9350612044818560208601612002565b61204d81612010565b840191505092915050565b5f6101408201905061206c5f83018d611d43565b612079602083018c611f66565b612086604083018b611f66565b612093606083018a611fd9565b6120a06080830189611d7e565b6120ad60a0830188611d7e565b6120ba60c0830187611d7e565b6120c760e0830186611c00565b6120d5610100830185611c00565b8181036101208301526120e88184612020565b90509b9a5050505050505050505050565b5f6020828403121561210e5761210d611b26565b5b5f61211b84828501611c6e565b91505092915050565b7f6e6f742070726f706f73656400000000000000000000000000000000000000005f82015250565b5f612158600c83611ff2565b915061216382612124565b602082019050919050565b5f6020820190508181035f8301526121858161214c565b9050919050565b7f4e487b71000000000000000000000000000000000000000000000000000000005f52601160045260245ffd5b5f6121c382611d6b565b91506121ce83611d6b565b9250828201905067ffffffffffffffff8111156121ee576121ed61218c565b5b92915050565b7f64697370757465206f70656e00000000000000000000000000000000000000005f82015250565b5f612228600c83611ff2565b9150612233826121f4565b602082019050919050565b5f6020820190508181035f8301526122558161221c565b9050919050565b5f60208201905061226f5f830184611f66565b92915050565b7f636c61696d6564000000000000000000000000000000000000000000000000005f82015250565b5f6122a9600783611ff2565b91506122b482612275565b602082019050919050565b5f6020820190508181035f8301526122d68161229d565b9050919050565b7f6e6f7468696e67000000000000000000000000000000000000000000000000005f82015250565b5f612311600783611ff2565b915061231c826122dd565b602082019050919050565b5f6020820190508181035f83015261233e81612305565b9050919050565b7f63616e6e6f742063616e63656c000000000000000000000000000000000000005f82015250565b5f612379600d83611ff2565b915061238482612345565b602082019050919050565b5f6020820190508181035f8301526123a68161236d565b9050919050565b7f62616420737461746500000000000000000000000000000000000000000000005f82015250565b5f6123e1600983611ff2565b91506123ec826123ad565b602082019050919050565b5f6020820190508181035f83015261240e816123d5565b9050919050565b7f7374696c6c206f70656e000000000000000000000000000000000000000000005f82015250565b5f612449600a83611ff2565b915061245482612415565b602082019050919050565b5f6020820190508181035f8301526124768161243d565b9050919050565b7f6f7074696f6e00000000000000000000000000000000000000000000000000005f82015250565b5f6124b1600683611ff2565b91506124bc8261247d565b602082019050919050565b5f6020820190508181035f8301526124de816124a5565b9050919050565b5f6040820190506124f85f830185611f66565b6125056020830184611d7e565b9392505050565b7f6f7074696f6e436f756e740000000000000000000000000000000000000000005f82015250565b5f612540600b83611ff2565b915061254b8261250c565b602082019050919050565b5f6020820190508181035f83015261256d81612534565b9050919050565b7f6475726174696f6e0000000000000000000000000000000000000000000000005f82015250565b5f6125a8600883611ff2565b91506125b382612574565b602082019050919050565b5f6020820190508181035f8301526125d58161259c565b9050919050565b5f6125e682611b2e565b91507fffffffffffffffffffffffffffffffffffffffffffffffffffffffffffffffff82036126185761261761218c565b5b600182019050919050565b5f82905092915050565b7f4e487b71000000000000000000000000000000000000000000000000000000005f52604160045260245ffd5b7f4e487b71000000000000000000000000000000000000000000000000000000005f52602260045260245ffd5b5f600282049050600182168061269e57607f821691505b6020821081036126b1576126b061265a565b5b50919050565b5f819050815f5260205f209050919050565b5f6020601f8301049050919050565b5f82821b905092915050565b5f600883026127137fffffffffffffffffffffffffffffffffffffffffffffffffffffffffffffffff826126d8565b61271d86836126d8565b95508019841693508086168417925050509392505050565b5f61274f61274a61274584611b2e565b611ea2565b611b2e565b9050919050565b5f819050919050565b61276883612735565b61277c61277482612756565b8484546126e4565b825550505050565b5f5f905090565b612793612784565b61279e81848461275f565b505050565b5f5b828110156127c4576127b95f82840161278b565b6001810190506127a5565b505050565b601f8211156128175782821115612816576127e3816126b7565b6127ec836126c9565b6127f5856126c9565b6020861015612802575f90505b808301612811828403826127a3565b505050505b5b505050565b5f82821c905092915050565b5f6128375f198460080261281c565b1980831691505092915050565b5f61284f8383612828565b9150826002028217905092915050565b6128698383612623565b67ffffffffffffffff8111156128825761288161262d565b5b61288c8254612687565b6128978282856127c9565b5f601f8311600181146128c4575f84156128b2578287013590505b6128bc8582612844565b865550612923565b601f1984166128d2866126b7565b5f5b828110156128f9578489013582556001820191506020850194506020810190506128d4565b868310156129165784890135612912601f891682612828565b8355505b6001600288020188555050505b50505050505050565b828183375f83830152505050565b5f6129458385611ff2565b935061295283858461292c565b61295b83612010565b840190509392505050565b5f6060820190506129795f830187611f66565b6129866020830186611d7e565b818103604083015261299981848661293a565b905095945050505050565b7f6e6f74206f70656e0000000000000000000000000000000000000000000000005f82015250565b5f6129d8600883611ff2565b91506129e3826129a4565b602082019050919050565b5f6020820190508181035f830152612a05816129cc565b9050919050565b7f636c6f73656400000000000000000000000000000000000000000000000000005f82015250565b5f612a40600683611ff2565b9150612a4b82612a0c565b602082019050919050565b5f6020820190508181035f830152612a6d81612a34565b9050919050565b7f616d6f756e743d300000000000000000000000000000000000000000000000005f82015250565b5f612aa8600883611ff2565b9150612ab382612a74565b602082019050919050565b5f6020820190508181035f830152612ad581612a9c565b9050919050565b5f612ae682611b2e565b9150612af183611b2e565b9250828201905080821115612b0957612b0861218c565b5b92915050565b5f604082019050612b225f830185611f66565b612b2f6020830184611c00565b9392505050565b5f612b4082611b8c565b915060ff8203612b5357612b5261218c565b5b600182019050919050565b5f612b6882611b2e565b9150612b7383611b2e565b9250828202612b8181611b2e565b91508282048414831517612b9857612b9761218c565b5b5092915050565b7f4e487b71000000000000000000000000000000000000000000000000000000005f52601260045260245ffd5b5f612bd682611b2e565b9150612be183611b2e565b925082612bf157612bf0612b9f565b5b82820490509291505056fea2646970667358221220850c1e9f5d55b19cd50ed52d7549a40c9772a83fd97d02d57fd6040cdc73738e64736f6c63430008210033","linkReferences":{}},"methodIdentifiers":{"DEFAULT_DISPUTE_WINDOW()":"99890895","MAX_DURATION()":"b1724b46","MIN_DURATION()":"b6a6d177","MIN_UNIQUE_BETTORS()":"44180348","bet(uint256,uint8,uint256)":"cf87935c","cancelMarket(uint256)":"7c16cd9e","claim(uint256)":"379607f5","createMarket(string,uint8,uint64)":"a3a98d56","finalize(uint256)":"05261aea","getMarket(uint256)":"eb44fdd3","hasClaimed(uint256,address)":"873f6f9e","marketCount()":"ec979082","optionTotal(uint256,uint8)":"12b27c05","owner()":"8da5cb5b","previewClaim(uint256,address)":"b8ae007d","proposeOutcome(uint256,uint8)":"86274854","renounceOwnership()":"715018a6","seki()":"cd356634","transferOwnership(address)":"f2fde38b","userStake(uint256,address,uint8)":"8875be3b"},"id":33}